{
  "contractName": "Auction",
  "abi": [
    {
      "inputs": [
        {
          "internalType": "uint256",
          "name": "startingPrice",
          "type": "uint256"
        },
        {
          "internalType": "string",
          "name": "itemName",
          "type": "string"
        }
      ],
      "stateMutability": "nonpayable",
      "type": "constructor"
    },
    {
      "anonymous": false,
      "inputs": [
        {
          "indexed": false,
          "internalType": "string",
          "name": "itemName",
          "type": "string"
        },
        {
          "indexed": false,
          "internalType": "address",
          "name": "winner",
          "type": "address"
        },
        {
          "indexed": false,
          "internalType": "uint256",
          "name": "highestBid",
          "type": "uint256"
        }
      ],
      "name": "AuctionEnded",
      "type": "event"
    },
    {
      "anonymous": false,
      "inputs": [
        {
          "indexed": false,
          "internalType": "string",
          "name": "itemName",
          "type": "string"
        },
        {
          "indexed": false,
          "internalType": "address",
          "name": "bidder",
          "type": "address"
        },
        {
          "indexed": false,
          "internalType": "uint256",
          "name": "bidAmount",
          "type": "uint256"
        }
      ],
      "name": "BidPlaced",
      "type": "event"
    },
    {
      "anonymous": false,
      "inputs": [
        {
          "indexed": false,
          "internalType": "string",
          "name": "itemName",
          "type": "string"
        },
        {
          "indexed": false,
          "internalType": "address",
          "name": "owner",
          "type": "address"
        },
        {
          "indexed": false,
          "internalType": "uint256",
          "name": "startingPrice",
          "type": "uint256"
        }
      ],
      "name": "ItemAdded",
      "type": "event"
    },
    {
      "inputs": [
        {
          "internalType": "address",
          "name": "",
          "type": "address"
        }
      ],
      "name": "bids",
      "outputs": [
        {
          "internalType": "uint256",
          "name": "",
          "type": "uint256"
        }
      ],
      "stateMutability": "view",
      "type": "function",
      "constant": true
    },
    {
      "inputs": [
        {
          "internalType": "string",
          "name": "itemName",
          "type": "string"
        },
        {
          "internalType": "uint256",
          "name": "startingPrice",
          "type": "uint256"
        }
      ],
      "name": "addItem",
      "outputs": [],
      "stateMutability": "payable",
      "type": "function",
      "payable": true
    },
    {
      "inputs": [
        {
          "internalType": "string",
          "name": "itemName",
          "type": "string"
        }
      ],
      "name": "placeBid",
      "outputs": [],
      "stateMutability": "payable",
      "type": "function",
      "payable": true
    },
    {
      "inputs": [
        {
          "internalType": "string",
          "name": "itemName",
          "type": "string"
        }
      ],
      "name": "endAuction",
      "outputs": [],
      "stateMutability": "nonpayable",
      "type": "function"
    },
    {
      "inputs": [
        {
          "internalType": "string",
          "name": "itemName",
          "type": "string"
        }
      ],
      "name": "getItem",
      "outputs": [
        {
          "internalType": "address",
          "name": "owner",
          "type": "address"
        },
        {
          "internalType": "uint256",
          "name": "startingPrice",
          "type": "uint256"
        },
        {
          "internalType": "uint256",
          "name": "highestBid",
          "type": "uint256"
        },
        {
          "internalType": "address",
          "name": "highestBidder",
          "type": "address"
        },
        {
          "internalType": "bool",
          "name": "ended",
          "type": "bool"
        }
      ],
      "stateMutability": "view",
      "type": "function",
      "constant": true
    }
  ],
  "bytecode": "0x60806040523480156200001157600080fd5b506040516200131338038062001313833981810160405281019062000037919062000286565b600080826040516200004a919062000339565b90815260200160405180910390209050338160000160006101000a81548173ffffffffffffffffffffffffffffffffffffffff021916908373ffffffffffffffffffffffffffffffffffffffff16021790555082816001018190555082816002018190555050505062000352565b6000604051905090565b600080fd5b600080fd5b6000819050919050565b620000e181620000cc565b8114620000ed57600080fd5b50565b6000815190506200010181620000d6565b92915050565b600080fd5b600080fd5b6000601f19601f8301169050919050565b7f4e487b7100000000000000000000000000000000000000000000000000000000600052604160045260246000fd5b6200015c8262000111565b810181811067ffffffffffffffff821117156200017e576200017d62000122565b5b80604052505050565b600062000193620000b8565b9050620001a1828262000151565b919050565b600067ffffffffffffffff821115620001c457620001c362000122565b5b620001cf8262000111565b9050602081019050919050565b60005b83811015620001fc578082015181840152602081019050620001df565b60008484015250505050565b60006200021f6200021984620001a6565b62000187565b9050828152602081018484840111156200023e576200023d6200010c565b5b6200024b848285620001dc565b509392505050565b600082601f8301126200026b576200026a62000107565b5b81516200027d84826020860162000208565b91505092915050565b60008060408385031215620002a0576200029f620000c2565b5b6000620002b085828601620000f0565b925050602083015167ffffffffffffffff811115620002d457620002d3620000c7565b5b620002e28582860162000253565b9150509250929050565b600081519050919050565b600081905092915050565b60006200030f82620002ec565b6200031b8185620002f7565b93506200032d818560208601620001dc565b80840191505092915050565b600062000347828462000302565b915081905092915050565b610fb180620003626000396000f3fe60806040526004361061004a5760003560e01c806362d6bbdf1461004f57806362ea82db1461006b578063b6010fcd146100a8578063ce2ba9bf146100e9578063e967e60c14610112575b600080fd5b61006960048036038101906100649190610a2c565b61012e565b005b34801561007757600080fd5b50610092600480360381019061008d9190610ae6565b61028b565b60405161009f9190610b22565b60405180910390f35b3480156100b457600080fd5b506100cf60048036038101906100ca9190610b3d565b6102a3565b6040516100e0959493929190610bb0565b60405180910390f35b3480156100f557600080fd5b50610110600480360381019061010b9190610b3d565b610346565b005b61012c60048036038101906101279190610b3d565b610538565b005b600073ffffffffffffffffffffffffffffffffffffffff166000836040516101569190610c74565b908152602001604051809103902060000160009054906101000a900473ffffffffffffffffffffffffffffffffffffffff1673ffffffffffffffffffffffffffffffffffffffff16146101de576040517f08c379a00000000000000000000000000000000000000000000000000000000081526004016101d590610ce8565b60405180910390fd5b600080836040516101ef9190610c74565b90815260200160405180910390209050338160000160006101000a81548173ffffffffffffffffffffffffffffffffffffffff021916908373ffffffffffffffffffffffffffffffffffffffff1602179055508181600101819055507f2c7865b54d50a500f9e8c83f521591ef919c6a8cbe31eae82ced3ee4d1371f9783338460405161027e93929190610d41565b60405180910390a1505050565b60016020528060005260406000206000915090505481565b6000806000806000806000876040516102bc9190610c74565b908152602001604051809103902090508060000160009054906101000a900473ffffffffffffffffffffffffffffffffffffffff16955080600101549450806002015493508060030160009054906101000a900473ffffffffffffffffffffffffffffffffffffffff1692508060030160149054906101000a900460ff1691505091939590929450565b6000816040516103569190610c74565b908152602001604051809103902060030160149054906101000a900460ff16156103b5576040517f08c379a00000000000000000000000000000000000000000000000000000000081526004016103ac90610dcb565b60405180910390fd5b60016000826040516103c79190610c74565b908152602001604051809103902060030160146101000a81548160ff0219169083151502179055506000816040516103ff9190610c74565b908152602001604051809103902060000160009054906101000a900473ffffffffffffffffffffffffffffffffffffffff1673ffffffffffffffffffffffffffffffffffffffff166108fc60008360405161045a9190610c74565b9081526020016040518091039020600201549081150290604051600060405180830381858888f19350505050158015610497573d6000803e3d6000fd5b507fa0fb15ce4bc38fa6151bf16630e38863764a7bb541866d083619bc5b6b93ad02816000836040516104ca9190610c74565b908152602001604051809103902060030160009054906101000a900473ffffffffffffffffffffffffffffffffffffffff1660008460405161050c9190610c74565b90815260200160405180910390206002015460405161052d93929190610d41565b60405180910390a150565b6000816040516105489190610c74565b908152602001604051809103902060030160149054906101000a900460ff16156105a7576040517f08c379a000000000000000000000000000000000000000000000000000000000815260040161059e90610e37565b60405180910390fd5b6000816040516105b79190610c74565b908152602001604051809103902060000160009054906101000a900473ffffffffffffffffffffffffffffffffffffffff1673ffffffffffffffffffffffffffffffffffffffff163373ffffffffffffffffffffffffffffffffffffffff1603610656576040517f08c379a000000000000000000000000000000000000000000000000000000000815260040161064d90610ec9565b60405180910390fd5b6000816040516106669190610c74565b90815260200160405180910390206002015434116106b9576040517f08c379a00000000000000000000000000000000000000000000000000000000081526004016106b090610f5b565b60405180910390fd5b600073ffffffffffffffffffffffffffffffffffffffff166000826040516106e19190610c74565b908152602001604051809103902060030160009054906101000a900473ffffffffffffffffffffffffffffffffffffffff1673ffffffffffffffffffffffffffffffffffffffff16146107d85760008160405161073e9190610c74565b908152602001604051809103902060030160009054906101000a900473ffffffffffffffffffffffffffffffffffffffff1673ffffffffffffffffffffffffffffffffffffffff166108fc6000836040516107999190610c74565b9081526020016040518091039020600201549081150290604051600060405180830381858888f193505050501580156107d6573d6000803e3d6000fd5b505b346000826040516107e99190610c74565b9081526020016040518091039020600201819055503360008260405161080f9190610c74565b908152602001604051809103902060030160006101000a81548173ffffffffffffffffffffffffffffffffffffffff021916908373ffffffffffffffffffffffffffffffffffffffff1602179055507f027aaa4de8a8577ab88766593b19e891945e65f7d03ad3551436d3db7feed23381333460405161089193929190610d41565b60405180910390a150565b6000604051905090565b600080fd5b600080fd5b600080fd5b600080fd5b6000601f19601f8301169050919050565b7f4e487b7100000000000000000000000000000000000000000000000000000000600052604160045260246000fd5b610903826108ba565b810181811067ffffffffffffffff82111715610922576109216108cb565b5b80604052505050565b600061093561089c565b905061094182826108fa565b919050565b600067ffffffffffffffff821115610961576109606108cb565b5b61096a826108ba565b9050602081019050919050565b82818337600083830152505050565b600061099961099484610946565b61092b565b9050828152602081018484840111156109b5576109b46108b5565b5b6109c0848285610977565b509392505050565b600082601f8301126109dd576109dc6108b0565b5b81356109ed848260208601610986565b91505092915050565b6000819050919050565b610a09816109f6565b8114610a1457600080fd5b50565b600081359050610a2681610a00565b92915050565b60008060408385031215610a4357610a426108a6565b5b600083013567ffffffffffffffff811115610a6157610a606108ab565b5b610a6d858286016109c8565b9250506020610a7e85828601610a17565b9150509250929050565b600073ffffffffffffffffffffffffffffffffffffffff82169050919050565b6000610ab382610a88565b9050919050565b610ac381610aa8565b8114610ace57600080fd5b50565b600081359050610ae081610aba565b92915050565b600060208284031215610afc57610afb6108a6565b5b6000610b0a84828501610ad1565b91505092915050565b610b1c816109f6565b82525050565b6000602082019050610b376000830184610b13565b92915050565b600060208284031215610b5357610b526108a6565b5b600082013567ffffffffffffffff811115610b7157610b706108ab565b5b610b7d848285016109c8565b91505092915050565b610b8f81610aa8565b82525050565b60008115159050919050565b610baa81610b95565b82525050565b600060a082019050610bc56000830188610b86565b610bd26020830187610b13565b610bdf6040830186610b13565b610bec6060830185610b86565b610bf96080830184610ba1565b9695505050505050565b600081519050919050565b600081905092915050565b60005b83811015610c37578082015181840152602081019050610c1c565b60008484015250505050565b6000610c4e82610c03565b610c588185610c0e565b9350610c68818560208601610c19565b80840191505092915050565b6000610c808284610c43565b915081905092915050565b600082825260208201905092915050565b7f4974656d20616c72656164792065786973747300000000000000000000000000600082015250565b6000610cd2601383610c8b565b9150610cdd82610c9c565b602082019050919050565b60006020820190508181036000830152610d0181610cc5565b9050919050565b6000610d1382610c03565b610d1d8185610c8b565b9350610d2d818560208601610c19565b610d36816108ba565b840191505092915050565b60006060820190508181036000830152610d5b8186610d08565b9050610d6a6020830185610b86565b610d776040830184610b13565b949350505050565b7f41756374696f6e2068617320616c726561647920656e64656400000000000000600082015250565b6000610db5601983610c8b565b9150610dc082610d7f565b602082019050919050565b60006020820190508181036000830152610de481610da8565b9050919050565b7f41756374696f6e2068617320656e646564000000000000000000000000000000600082015250565b6000610e21601183610c8b565b9150610e2c82610deb565b602082019050919050565b60006020820190508181036000830152610e5081610e14565b9050919050565b7f4f776e65722063616e6e6f7420626964206f6e207468656972206f776e20697460008201527f656d000000000000000000000000000000000000000000000000000000000000602082015250565b6000610eb3602283610c8b565b9150610ebe82610e57565b604082019050919050565b60006020820190508181036000830152610ee281610ea6565b9050919050565b7f42696420616d6f756e74206d75737420626520686967686572207468616e206360008201527f757272656e742068696768657374206269640000000000000000000000000000602082015250565b6000610f45603283610c8b565b9150610f5082610ee9565b604082019050919050565b60006020820190508181036000830152610f7481610f38565b905091905056fea2646970667358221220070bef275a309b620a3bb3934684fb88a13dc7bea3252fd23c22ed3632f0c96a64736f6c63430008130033",
  "immutableReferences": {},
  "source": "// SPDX-License-Identifier: MIT\r\npragma solidity ^0.8.0;\r\n\r\ncontract Auction {\r\n    // Structure to hold information about an item being auctioned\r\n    struct Item {\r\n        address owner;  // Address of the item owner\r\n        uint256 startingPrice;  // Starting price of the item\r\n        uint256 highestBid;  // Highest bid placed on the item\r\n        address highestBidder;  // Address of the highest bidder\r\n        bool ended;  // Flag indicating if the auction has ended\r\n    }\r\n\r\n    // Mapping of item names to their corresponding Item struct\r\n    mapping(string => Item) private items;\r\n    mapping(address => uint) public bids;\r\n\r\n    constructor(uint256 startingPrice,  string memory itemName){\r\n        Item storage newItem = items[itemName];\r\n        newItem.owner = msg.sender;\r\n        newItem.startingPrice = startingPrice;\r\n        newItem.highestBid = startingPrice;\r\n    }\r\n\r\n    // Event emitted when a new item is added to the auction\r\n    event ItemAdded(string itemName, address owner, uint256 startingPrice);\r\n\r\n    // Event emitted when a bid is placed on an item\r\n    event BidPlaced(string itemName, address bidder, uint256 bidAmount);\r\n\r\n    // Event emitted when an item's auction has ended\r\n    event AuctionEnded(string itemName, address winner, uint256 highestBid);\r\n\r\n    // Function to add a new item to the auction\r\n    function addItem(string memory itemName, uint256 startingPrice) public payable {\r\n        require(items[itemName].owner == address(0), \"Item already exists\");\r\n\r\n        Item storage newItem = items[itemName];\r\n        newItem.owner = msg.sender;\r\n        newItem.startingPrice = startingPrice;\r\n\r\n        emit ItemAdded(itemName, msg.sender, startingPrice);\r\n    }\r\n\r\n    // Function to place a bid on an item\r\n    function placeBid(string memory itemName) public payable {\r\n        require(!items[itemName].ended, \"Auction has ended\");\r\n        require(msg.sender != items[itemName].owner, \"Owner cannot bid on their own item\");\r\n        require(msg.value > items[itemName].highestBid, \"Bid amount must be higher than current highest bid\");\r\n\r\n        // Refund previous highest bidder if there was one\r\n        if (items[itemName].highestBidder != address(0)) {\r\n            payable(items[itemName].highestBidder).transfer(items[itemName].highestBid);\r\n        }\r\n\r\n        // Update item information\r\n        items[itemName].highestBid = msg.value;\r\n        items[itemName].highestBidder = msg.sender;\r\n\r\n        emit BidPlaced(itemName, msg.sender, msg.value);\r\n    }\r\n\r\n    // Function to end an item's auction and transfer ownership to the highest bidder\r\n    function endAuction(string memory itemName) public {\r\n        require(!items[itemName].ended, \"Auction has already ended\");\r\n\r\n        items[itemName].ended = true;\r\n\r\n        // Transfer ownership of the item to the highest bidder\r\n        payable(items[itemName].owner).transfer(items[itemName].highestBid);\r\n\r\n        emit AuctionEnded(itemName, items[itemName].highestBidder, items[itemName].highestBid);\r\n    }\r\n\r\n    // Function to retrieve information about an item\r\n    function getItem(string memory itemName) public view returns (address owner, uint256 startingPrice, uint256 highestBid, address highestBidder, bool ended) {\r\n        Item storage item = items[itemName];\r\n\r\n        owner = item.owner;\r\n        startingPrice = item.startingPrice;\r\n        highestBid = item.highestBid;\r\n        highestBidder = item.highestBidder;\r\n        ended = item.ended;\r\n    }\r\n}",
  "sourcePath": "C:\\Users\\mallison\\Documents\\Spring'23\\BlockChain\\auction\\contracts\\Auction.sol",
  "compiler": {
    "name": "solc",
    "version": "0.8.19+commit.7dd6d404.Emscripten.clang"
  },
  "schemaVersion": "3.4.13",
  "updatedAt": "2023-04-27T00:07:05.558Z",
  "networkType": "ethereum",
  "devdoc": {
    "kind": "dev",
    "methods": {},
    "version": 1
  },
  "userdoc": {
    "kind": "user",
    "methods": {},
    "version": 1
  }
}