{
  "contractName": "MyAuction",
  "abi": [
    {
      "inputs": [
        {
          "internalType": "uint256",
          "name": "_biddingTime",
          "type": "uint256"
        },
        {
          "internalType": "address",
          "name": "_owner",
          "type": "address"
        },
        {
          "internalType": "string",
          "name": "_brand",
          "type": "string"
        },
        {
          "internalType": "string",
          "name": "_Rnumber",
          "type": "string"
        }
      ],
      "stateMutability": "nonpayable",
      "type": "constructor"
    },
    {
      "anonymous": false,
      "inputs": [
        {
          "indexed": true,
          "internalType": "address",
          "name": "highestBidder",
          "type": "address"
        },
        {
          "indexed": false,
          "internalType": "uint256",
          "name": "highestBid",
          "type": "uint256"
        }
      ],
      "name": "BidEvent",
      "type": "event"
    },
    {
      "anonymous": false,
      "inputs": [
        {
          "indexed": false,
          "internalType": "string",
          "name": "message",
          "type": "string"
        },
        {
          "indexed": false,
          "internalType": "uint256",
          "name": "time",
          "type": "uint256"
        }
      ],
      "name": "CanceledEvent",
      "type": "event"
    },
    {
      "anonymous": false,
      "inputs": [
        {
          "indexed": false,
          "internalType": "address",
          "name": "withdrawer",
          "type": "address"
        },
        {
          "indexed": false,
          "internalType": "uint256",
          "name": "amount",
          "type": "uint256"
        }
      ],
      "name": "WithdrawalEvent",
      "type": "event"
    },
    {
      "inputs": [],
      "name": "Mycar",
      "outputs": [
        {
          "internalType": "string",
          "name": "Brand",
          "type": "string"
        },
        {
          "internalType": "string",
          "name": "Rnumber",
          "type": "string"
        }
      ],
      "stateMutability": "view",
      "type": "function"
    },
    {
      "inputs": [],
      "name": "STATE",
      "outputs": [
        {
          "internalType": "enum Auction.auction_state",
          "name": "",
          "type": "uint8"
        }
      ],
      "stateMutability": "view",
      "type": "function"
    },
    {
      "inputs": [],
      "name": "auction_end",
      "outputs": [
        {
          "internalType": "uint256",
          "name": "",
          "type": "uint256"
        }
      ],
      "stateMutability": "view",
      "type": "function"
    },
    {
      "inputs": [],
      "name": "auction_start",
      "outputs": [
        {
          "internalType": "uint256",
          "name": "",
          "type": "uint256"
        }
      ],
      "stateMutability": "view",
      "type": "function"
    },
    {
      "inputs": [
        {
          "internalType": "address",
          "name": "",
          "type": "address"
        }
      ],
      "name": "bids",
      "outputs": [
        {
          "internalType": "uint256",
          "name": "",
          "type": "uint256"
        }
      ],
      "stateMutability": "view",
      "type": "function"
    },
    {
      "inputs": [],
      "name": "highestBid",
      "outputs": [
        {
          "internalType": "uint256",
          "name": "",
          "type": "uint256"
        }
      ],
      "stateMutability": "view",
      "type": "function"
    },
    {
      "inputs": [],
      "name": "highestBidder",
      "outputs": [
        {
          "internalType": "address",
          "name": "",
          "type": "address"
        }
      ],
      "stateMutability": "view",
      "type": "function"
    },
    {
      "inputs": [],
      "name": "bid",
      "outputs": [
        {
          "internalType": "bool",
          "name": "",
          "type": "bool"
        }
      ],
      "stateMutability": "payable",
      "type": "function"
    },
    {
      "inputs": [],
      "name": "cancel_auction",
      "outputs": [
        {
          "internalType": "bool",
          "name": "",
          "type": "bool"
        }
      ],
      "stateMutability": "nonpayable",
      "type": "function"
    },
    {
      "inputs": [],
      "name": "withdraw",
      "outputs": [
        {
          "internalType": "bool",
          "name": "",
          "type": "bool"
        }
      ],
      "stateMutability": "nonpayable",
      "type": "function"
    },
    {
      "inputs": [],
      "name": "destruct_auction",
      "outputs": [
        {
          "internalType": "bool",
          "name": "",
          "type": "bool"
        }
      ],
      "stateMutability": "nonpayable",
      "type": "function"
    },
    {
      "inputs": [],
      "name": "get_owner",
      "outputs": [
        {
          "internalType": "address",
          "name": "",
          "type": "address"
        }
      ],
      "stateMutability": "view",
      "type": "function"
    }
  ],
  "bytecode": "0x60806040523480156200001157600080fd5b50604051620018bc380380620018bc833981810160405281019062000037919062000338565b826000806101000a81548173ffffffffffffffffffffffffffffffffffffffff021916908373ffffffffffffffffffffffffffffffffffffffff16021790555042600181905550610e10846200008e919062000417565b6001546200009d919062000462565b6002819055506001600960006101000a81548160ff02191690836001811115620000cc57620000cb6200049d565b5b02179055508160056000019081620000e591906200070d565b508060056001019081620000fa91906200070d565b5050505050620007f4565b6000604051905090565b600080fd5b600080fd5b6000819050919050565b6200012e8162000119565b81146200013a57600080fd5b50565b6000815190506200014e8162000123565b92915050565b600073ffffffffffffffffffffffffffffffffffffffff82169050919050565b6000620001818262000154565b9050919050565b620001938162000174565b81146200019f57600080fd5b50565b600081519050620001b38162000188565b92915050565b600080fd5b600080fd5b6000601f19601f8301169050919050565b7f4e487b7100000000000000000000000000000000000000000000000000000000600052604160045260246000fd5b6200020e82620001c3565b810181811067ffffffffffffffff8211171562000230576200022f620001d4565b5b80604052505050565b60006200024562000105565b905062000253828262000203565b919050565b600067ffffffffffffffff821115620002765762000275620001d4565b5b6200028182620001c3565b9050602081019050919050565b60005b83811015620002ae57808201518184015260208101905062000291565b60008484015250505050565b6000620002d1620002cb8462000258565b62000239565b905082815260208101848484011115620002f057620002ef620001be565b5b620002fd8482856200028e565b509392505050565b600082601f8301126200031d576200031c620001b9565b5b81516200032f848260208601620002ba565b91505092915050565b600080600080608085870312156200035557620003546200010f565b5b600062000365878288016200013d565b94505060206200037887828801620001a2565b935050604085015167ffffffffffffffff8111156200039c576200039b62000114565b5b620003aa8782880162000305565b925050606085015167ffffffffffffffff811115620003ce57620003cd62000114565b5b620003dc8782880162000305565b91505092959194509250565b7f4e487b7100000000000000000000000000000000000000000000000000000000600052601160045260246000fd5b6000620004248262000119565b9150620004318362000119565b9250828202620004418162000119565b915082820484148315176200045b576200045a620003e8565b5b5092915050565b60006200046f8262000119565b91506200047c8362000119565b9250828201905080821115620004975762000496620003e8565b5b92915050565b7f4e487b7100000000000000000000000000000000000000000000000000000000600052602160045260246000fd5b600081519050919050565b7f4e487b7100000000000000000000000000000000000000000000000000000000600052602260045260246000fd5b600060028204905060018216806200051f57607f821691505b602082108103620005355762000534620004d7565b5b50919050565b60008190508160005260206000209050919050565b60006020601f8301049050919050565b600082821b905092915050565b6000600883026200059f7fffffffffffffffffffffffffffffffffffffffffffffffffffffffffffffffff8262000560565b620005ab868362000560565b95508019841693508086168417925050509392505050565b6000819050919050565b6000620005ee620005e8620005e28462000119565b620005c3565b62000119565b9050919050565b6000819050919050565b6200060a83620005cd565b620006226200061982620005f5565b8484546200056d565b825550505050565b600090565b620006396200062a565b62000646818484620005ff565b505050565b5b818110156200066e57620006626000826200062f565b6001810190506200064c565b5050565b601f821115620006bd5762000687816200053b565b620006928462000550565b81016020851015620006a2578190505b620006ba620006b18562000550565b8301826200064b565b50505b505050565b600082821c905092915050565b6000620006e260001984600802620006c2565b1980831691505092915050565b6000620006fd8383620006cf565b9150826002028217905092915050565b6200071882620004cc565b67ffffffffffffffff811115620007345762000733620001d4565b5b62000740825462000506565b6200074d82828562000672565b600060209050601f83116001811462000785576000841562000770578287015190505b6200077c8582620006ef565b865550620007ec565b601f19841662000795866200053b565b60005b82811015620007bf5784890151825560018201915060208501945060208101905062000798565b86831015620007df5784890151620007db601f891682620006cf565b8355505b6001600288020188555050505b505050505050565b6110b880620008046000396000f3fe6080604052600436106100a75760003560e01c806378f453401161006457806378f45340146101b457806391f90157146101df578063bbafd3d41461020a578063c458b65a14610235578063c486456c14610260578063d57bde791461028b576100a7565b80630216f202146100ac5780630ac298dc146100d85780631998aeef146101035780633ba88ca1146101215780633ccfd60b1461014c57806362ea82db14610177575b600080fd5b3480156100b857600080fd5b506100c16102b6565b6040516100cf929190610af9565b60405180910390f35b3480156100e457600080fd5b506100ed6103d8565b6040516100fa9190610b71565b60405180910390f35b61010b610401565b6040516101189190610ba7565b60405180910390f35b34801561012d57600080fd5b50610136610652565b6040516101439190610ba7565b60405180910390f35b34801561015857600080fd5b50610161610725565b60405161016e9190610ba7565b60405180910390f35b34801561018357600080fd5b5061019e60048036038101906101999190610bf3565b61087c565b6040516101ab9190610c39565b60405180910390f35b3480156101c057600080fd5b506101c9610894565b6040516101d69190610c39565b60405180910390f35b3480156101eb57600080fd5b506101f461089a565b6040516102019190610b71565b60405180910390f35b34801561021657600080fd5b5061021f6108c0565b60405161022c9190610ba7565b60405180910390f35b34801561024157600080fd5b5061024a610a4a565b6040516102579190610c39565b60405180910390f35b34801561026c57600080fd5b50610275610a50565b6040516102829190610ccb565b60405180910390f35b34801561029757600080fd5b506102a0610a63565b6040516102ad9190610c39565b60405180910390f35b60058060000180546102c790610d15565b80601f01602080910402602001604051908101604052809291908181526020018280546102f390610d15565b80156103405780601f1061031557610100808354040283529160200191610340565b820191906000526020600020905b81548152906001019060200180831161032357829003601f168201915b50505050509080600101805461035590610d15565b80601f016020809104026020016040519081016040528092919081815260200182805461038190610d15565b80156103ce5780601f106103a3576101008083540402835291602001916103ce565b820191906000526020600020905b8154815290600101906020018083116103b157829003601f168201915b5050505050905082565b60008060009054906101000a900473ffffffffffffffffffffffffffffffffffffffff16905090565b600060025442111561041257600080fd5b60035434600860003373ffffffffffffffffffffffffffffffffffffffff1673ffffffffffffffffffffffffffffffffffffffff168152602001908152602001600020546104609190610d75565b116104a0576040517f08c379a000000000000000000000000000000000000000000000000000000000815260040161049790610df5565b60405180910390fd5b33600460006101000a81548173ffffffffffffffffffffffffffffffffffffffff021916908373ffffffffffffffffffffffffffffffffffffffff160217905550346003819055506007339080600181540180825580915050600190039060005260206000200160009091909190916101000a81548173ffffffffffffffffffffffffffffffffffffffff021916908373ffffffffffffffffffffffffffffffffffffffff16021790555034600860003373ffffffffffffffffffffffffffffffffffffffff1673ffffffffffffffffffffffffffffffffffffffff168152602001908152602001600020546105969190610d75565b600860003373ffffffffffffffffffffffffffffffffffffffff1673ffffffffffffffffffffffffffffffffffffffff16815260200190815260200160002081905550600460009054906101000a900473ffffffffffffffffffffffffffffffffffffffff1673ffffffffffffffffffffffffffffffffffffffff167f0d993d4f8a84158f5329713d6d13ef54e77b325040c887c8b3e565cfd0cd3e216003546040516106439190610c39565b60405180910390a26001905090565b60008060009054906101000a900473ffffffffffffffffffffffffffffffffffffffff1673ffffffffffffffffffffffffffffffffffffffff163373ffffffffffffffffffffffffffffffffffffffff16146106ad57600080fd5b6002544211156106bc57600080fd5b6000600960006101000a81548160ff021916908360018111156106e2576106e1610c54565b5b02179055507f06b08932edfa95ecf10e18f8e389c58332551bbfe5faf843ed9afb329fd14118426040516107169190610e61565b60405180910390a16001905090565b6000600254421161076b576040517f08c379a000000000000000000000000000000000000000000000000000000000815260040161076290610f01565b60405180910390fd5b6000600860003373ffffffffffffffffffffffffffffffffffffffff1673ffffffffffffffffffffffffffffffffffffffff1681526020019081526020016000205490506000600860003373ffffffffffffffffffffffffffffffffffffffff1673ffffffffffffffffffffffffffffffffffffffff168152602001908152602001600020819055503373ffffffffffffffffffffffffffffffffffffffff166108fc829081150290604051600060405180830381858888f1935050505015801561083a573d6000803e3d6000fd5b507f2f174ca282119315c59efaf21147aef438581dabdeb498198ae28964373dd8bc338260405161086c929190610f21565b60405180910390a1600191505090565b60086020528060005260406000206000915090505481565b60015481565b600460009054906101000a900473ffffffffffffffffffffffffffffffffffffffff1681565b60008060009054906101000a900473ffffffffffffffffffffffffffffffffffffffff1673ffffffffffffffffffffffffffffffffffffffff163373ffffffffffffffffffffffffffffffffffffffff161461091b57600080fd5b600254421161095f576040517f08c379a000000000000000000000000000000000000000000000000000000000815260040161095690610fbc565b60405180910390fd5b60005b600780549050811015610a10576000600860006007848154811061098957610988610fdc565b5b9060005260206000200160009054906101000a900473ffffffffffffffffffffffffffffffffffffffff1673ffffffffffffffffffffffffffffffffffffffff1673ffffffffffffffffffffffffffffffffffffffff16815260200190815260200160002054146109fd576109fc61100b565b5b8080610a089061103a565b915050610962565b5060008054906101000a900473ffffffffffffffffffffffffffffffffffffffff1673ffffffffffffffffffffffffffffffffffffffff16ff5b60025481565b600960009054906101000a900460ff1681565b60035481565b600081519050919050565b600082825260208201905092915050565b60005b83811015610aa3578082015181840152602081019050610a88565b60008484015250505050565b6000601f19601f8301169050919050565b6000610acb82610a69565b610ad58185610a74565b9350610ae5818560208601610a85565b610aee81610aaf565b840191505092915050565b60006040820190508181036000830152610b138185610ac0565b90508181036020830152610b278184610ac0565b90509392505050565b600073ffffffffffffffffffffffffffffffffffffffff82169050919050565b6000610b5b82610b30565b9050919050565b610b6b81610b50565b82525050565b6000602082019050610b866000830184610b62565b92915050565b60008115159050919050565b610ba181610b8c565b82525050565b6000602082019050610bbc6000830184610b98565b92915050565b600080fd5b610bd081610b50565b8114610bdb57600080fd5b50565b600081359050610bed81610bc7565b92915050565b600060208284031215610c0957610c08610bc2565b5b6000610c1784828501610bde565b91505092915050565b6000819050919050565b610c3381610c20565b82525050565b6000602082019050610c4e6000830184610c2a565b92915050565b7f4e487b7100000000000000000000000000000000000000000000000000000000600052602160045260246000fd5b60028110610c9457610c93610c54565b5b50565b6000819050610ca582610c83565b919050565b6000610cb582610c97565b9050919050565b610cc581610caa565b82525050565b6000602082019050610ce06000830184610cbc565b92915050565b7f4e487b7100000000000000000000000000000000000000000000000000000000600052602260045260246000fd5b60006002820490506001821680610d2d57607f821691505b602082108103610d4057610d3f610ce6565b5b50919050565b7f4e487b7100000000000000000000000000000000000000000000000000000000600052601160045260246000fd5b6000610d8082610c20565b9150610d8b83610c20565b9250828201905080821115610da357610da2610d46565b5b92915050565b7f63616e2774206269642c204d616b652061206869676865722042696400000000600082015250565b6000610ddf601c83610a74565b9150610dea82610da9565b602082019050919050565b60006020820190508181036000830152610e0e81610dd2565b9050919050565b7f41756374696f6e2043616e63656c6c6564000000000000000000000000000000600082015250565b6000610e4b601183610a74565b9150610e5682610e15565b602082019050919050565b60006040820190508181036000830152610e7a81610e3e565b9050610e896020830184610c2a565b92915050565b7f63616e27742077697468647261772c2041756374696f6e206973207374696c6c60008201527f20206f70656e0000000000000000000000000000000000000000000000000000602082015250565b6000610eeb602683610a74565b9150610ef682610e8f565b604082019050919050565b60006020820190508181036000830152610f1a81610ede565b9050919050565b6000604082019050610f366000830185610b62565b610f436020830184610c2a565b9392505050565b7f596f752063616e2774202064657374727563742074686520636f6e747261637460008201527f2c5468652061756374696f6e206973207374696c6c206f70656e000000000000602082015250565b6000610fa6603a83610a74565b9150610fb182610f4a565b604082019050919050565b60006020820190508181036000830152610fd581610f99565b9050919050565b7f4e487b7100000000000000000000000000000000000000000000000000000000600052603260045260246000fd5b7f4e487b7100000000000000000000000000000000000000000000000000000000600052600160045260246000fd5b600061104582610c20565b91507fffffffffffffffffffffffffffffffffffffffffffffffffffffffffffffffff820361107757611076610d46565b5b60018201905091905056fea26469706673582212203d90e3e4876d6c6555c25d15faa1b021fe1d25d378439fb39350a722bde9aca264736f6c63430008130033",
  "immutableReferences": {},
  "source": "pragma  solidity ^0.8.0;\r\n  \r\ncontract Auction {\r\n    address internal auction_owner; \r\n    uint256 public auction_start; \r\n    uint256 public auction_end; \r\n    uint256 public highestBid; \r\n    address public highestBidder;  \r\n    enum auction_state {\r\n\r\n    CANCELLED, STARTED\r\n\r\n    } \r\n\r\nstruct car {\r\n    string Brand; \r\n    // registration number\r\n    string Rnumber;\r\n} \r\n\r\ncar public Mycar; \r\naddress[] bidders;\r\n\r\nmapping(address => uint) public bids; \r\nauction_state public STATE;\r\n\r\nmodifier an_ongoing_auction() { \r\n    require(block.timestamp  <= auction_end);\r\n    _;\r\n    } \r\n\r\nmodifier only_owner() { \r\n    require(msg.sender  == auction_owner);\r\n    _;\r\n    }\r\n\r\nfunction bid() virtual public payable returns (bool) {} \r\nfunction withdraw() virtual public returns (bool) {} \r\nfunction cancel_auction() virtual external returns (bool) {}\r\n\r\nevent BidEvent(address indexed highestBidder, uint256 highestBid); \r\nevent  WithdrawalEvent(address withdrawer, uint256 amount);\r\nevent CanceledEvent(string message, uint256 time);\r\n} \r\n\r\ncontract MyAuction is Auction {\r\n    constructor (uint _biddingTime, address  _owner, string memory _brand, string memory _Rnumber) { \r\n        auction_owner = _owner; \r\n        auction_start = block.timestamp;\r\n        auction_end = auction_start +  _biddingTime* 1 hours; \r\n        STATE = auction_state.STARTED;\r\n        Mycar.Brand = _brand;  Mycar.Rnumber = _Rnumber;\r\n    }\r\n\r\n    function bid() override public payable  an_ongoing_auction returns (bool){ \r\n        require(bids[msg.sender] + msg.value >  highestBid, \"can't bid, Make a higher Bid\");\r\n        highestBidder = msg.sender; \r\n        highestBid =  msg.value; \r\n        bidders.push(msg.sender);\r\n        bids[msg.sender] = bids[msg.sender] + msg.value; \r\n        emit  BidEvent(highestBidder, highestBid);\r\n        return true;\r\n        } \r\n    \r\n    function cancel_auction() override public only_owner  an_ongoing_auction returns (bool) { \r\n        STATE = auction_state.CANCELLED;\r\n        emit CanceledEvent(\"Auction Cancelled\", block.timestamp); \r\n        return true;\r\n    }\r\n\r\n    function  withdraw() override public returns (bool){\r\n        require(block.timestamp > auction_end , \"can't withdraw, Auction is still  open\"); \r\n        uint amount = bids[msg.sender];\r\n        bids[msg.sender] = 0; \r\n        payable (msg.sender).transfer(amount); \r\n        emit WithdrawalEvent(msg.sender,  amount); \r\n        return true;\r\n\r\n    } \r\n\r\n    function destruct_auction() external  only_owner returns (bool) { \r\n        require(block.timestamp > auction_end, \"You can't  destruct the contract,The auction is still open\");\r\n        for (uint i  = 0; i < bidders.length; i++){ \r\n            assert(bids[bidders[i]]  == 0);\r\n        } \r\n        selfdestruct(payable(auction_owner)); \r\n        return true;\r\n\r\n    } \r\n\r\n    function get_owner() view public returns(address)  { \r\n        return auction_owner;\r\n    }\r\n}",
  "sourcePath": "C:\\Users\\mallison\\Documents\\Spring'23\\BlockChain\\auction\\contracts\\Auction.sol",
  "compiler": {
    "name": "solc",
    "version": "0.8.19+commit.7dd6d404.Emscripten.clang"
  },
  "schemaVersion": "3.4.13",
  "updatedAt": "2023-04-26T20:52:48.830Z",
  "devdoc": {
    "kind": "dev",
    "methods": {},
    "version": 1
  },
  "userdoc": {
    "kind": "user",
    "methods": {},
    "version": 1
  }
}